{
	"back/fundme.sol": {
		"FundMe": {
			"abi": [
				{
					"inputs": [],
					"name": "count",
					"outputs": [
						{
							"internalType": "uint256",
							"name": "",
							"type": "uint256"
						}
					],
					"stateMutability": "view",
					"type": "function"
				},
				{
					"inputs": [],
					"name": "dec",
					"outputs": [],
					"stateMutability": "nonpayable",
					"type": "function"
				},
				{
					"inputs": [],
					"name": "fund",
					"outputs": [],
					"stateMutability": "payable",
					"type": "function"
				},
				{
					"inputs": [],
					"name": "get",
					"outputs": [
						{
							"internalType": "uint256",
							"name": "",
							"type": "uint256"
						}
					],
					"stateMutability": "view",
					"type": "function"
				},
				{
					"inputs": [],
					"name": "inc",
					"outputs": [],
					"stateMutability": "nonpayable",
					"type": "function"
				},
				{
					"inputs": [],
					"name": "minimumUSD",
					"outputs": [
						{
							"internalType": "uint256",
							"name": "",
							"type": "uint256"
						}
					],
					"stateMutability": "view",
					"type": "function"
				}
			],
			"devdoc": {
				"kind": "dev",
				"methods": {},
				"version": 1
			},
			"evm": {
				"assembly": "    /* \"back/fundme.sol\":60:486  contract FundMe {... */\n  mstore(0x40, 0x80)\n    /* \"back/fundme.sol\":113:115  50 */\n  0x32\n    /* \"back/fundme.sol\":85:115  uint256 public minimumUSD = 50 */\n  0x00\n  sstore\n    /* \"back/fundme.sol\":60:486  contract FundMe {... */\n  callvalue\n  dup1\n  iszero\n  tag_1\n  jumpi\n  0x00\n  dup1\n  revert\ntag_1:\n  pop\n  dataSize(sub_0)\n  dup1\n  dataOffset(sub_0)\n  0x00\n  codecopy\n  0x00\n  return\nstop\n\nsub_0: assembly {\n        /* \"back/fundme.sol\":60:486  contract FundMe {... */\n      mstore(0x40, 0x80)\n      jumpi(tag_1, lt(calldatasize, 0x04))\n      shr(0xe0, calldataload(0x00))\n      dup1\n      0x06661abd\n      eq\n      tag_2\n      jumpi\n      dup1\n      0x3430a88c\n      eq\n      tag_3\n      jumpi\n      dup1\n      0x371303c0\n      eq\n      tag_4\n      jumpi\n      dup1\n      0x6d4ce63c\n      eq\n      tag_5\n      jumpi\n      dup1\n      0xb3bcfa82\n      eq\n      tag_6\n      jumpi\n      dup1\n      0xb60d4288\n      eq\n      tag_7\n      jumpi\n    tag_1:\n      0x00\n      dup1\n      revert\n        /* \"back/fundme.sol\":266:284  uint public  count */\n    tag_2:\n      callvalue\n      dup1\n      iszero\n      tag_8\n      jumpi\n      0x00\n      dup1\n      revert\n    tag_8:\n      pop\n      tag_9\n      tag_10\n      jump\t// in\n    tag_9:\n      mload(0x40)\n      tag_11\n      swap2\n      swap1\n      tag_12\n      jump\t// in\n    tag_11:\n      mload(0x40)\n      dup1\n      swap2\n      sub\n      swap1\n      return\n        /* \"back/fundme.sol\":85:115  uint256 public minimumUSD = 50 */\n    tag_3:\n      callvalue\n      dup1\n      iszero\n      tag_13\n      jumpi\n      0x00\n      dup1\n      revert\n    tag_13:\n      pop\n      tag_14\n      tag_15\n      jump\t// in\n    tag_14:\n      mload(0x40)\n      tag_16\n      swap2\n      swap1\n      tag_12\n      jump\t// in\n    tag_16:\n      mload(0x40)\n      dup1\n      swap2\n      sub\n      swap1\n      return\n        /* \"back/fundme.sol\":373:424  function inc() public {... */\n    tag_4:\n      callvalue\n      dup1\n      iszero\n      tag_17\n      jumpi\n      0x00\n      dup1\n      revert\n    tag_17:\n      pop\n      tag_18\n      tag_19\n      jump\t// in\n    tag_18:\n      stop\n        /* \"back/fundme.sol\":291:365  function get() public view  returns (uint) {... */\n    tag_5:\n      callvalue\n      dup1\n      iszero\n      tag_20\n      jumpi\n      0x00\n      dup1\n      revert\n    tag_20:\n      pop\n      tag_21\n      tag_22\n      jump\t// in\n    tag_21:\n      mload(0x40)\n      tag_23\n      swap2\n      swap1\n      tag_12\n      jump\t// in\n    tag_23:\n      mload(0x40)\n      dup1\n      swap2\n      sub\n      swap1\n      return\n        /* \"back/fundme.sol\":432:483  function dec() public {... */\n    tag_6:\n      callvalue\n      dup1\n      iszero\n      tag_24\n      jumpi\n      0x00\n      dup1\n      revert\n    tag_24:\n      pop\n      tag_25\n      tag_26\n      jump\t// in\n    tag_25:\n      stop\n        /* \"back/fundme.sol\":124:258  function fund() public payable  {... */\n    tag_7:\n      tag_27\n      tag_28\n      jump\t// in\n    tag_27:\n      stop\n        /* \"back/fundme.sol\":266:284  uint public  count */\n    tag_10:\n      sload(0x01)\n      dup2\n      jump\t// out\n        /* \"back/fundme.sol\":85:115  uint256 public minimumUSD = 50 */\n    tag_15:\n      sload(0x00)\n      dup2\n      jump\t// out\n        /* \"back/fundme.sol\":373:424  function inc() public {... */\n    tag_19:\n        /* \"back/fundme.sol\":415:416  1 */\n      0x01\n        /* \"back/fundme.sol\":406:411  count */\n      dup1\n      0x00\n        /* \"back/fundme.sol\":406:416  count += 1 */\n      dup3\n      dup3\n      sload\n      tag_30\n      swap2\n      swap1\n      tag_31\n      jump\t// in\n    tag_30:\n      swap3\n      pop\n      pop\n      dup2\n      swap1\n      sstore\n      pop\n        /* \"back/fundme.sol\":373:424  function inc() public {... */\n      jump\t// out\n        /* \"back/fundme.sol\":291:365  function get() public view  returns (uint) {... */\n    tag_22:\n        /* \"back/fundme.sol\":328:332  uint */\n      0x00\n        /* \"back/fundme.sol\":352:357  count */\n      sload(0x01)\n        /* \"back/fundme.sol\":345:357  return count */\n      swap1\n      pop\n        /* \"back/fundme.sol\":291:365  function get() public view  returns (uint) {... */\n      swap1\n      jump\t// out\n        /* \"back/fundme.sol\":432:483  function dec() public {... */\n    tag_26:\n        /* \"back/fundme.sol\":474:475  1 */\n      0x01\n        /* \"back/fundme.sol\":465:470  count */\n      dup1\n      0x00\n        /* \"back/fundme.sol\":465:475  count -= 1 */\n      dup3\n      dup3\n      sload\n      tag_34\n      swap2\n      swap1\n      tag_35\n      jump\t// in\n    tag_34:\n      swap3\n      pop\n      pop\n      dup2\n      swap1\n      sstore\n      pop\n        /* \"back/fundme.sol\":432:483  function dec() public {... */\n      jump\t// out\n        /* \"back/fundme.sol\":124:258  function fund() public payable  {... */\n    tag_28:\n        /* \"back/fundme.sol\":189:199  minimumUSD */\n      sload(0x00)\n        /* \"back/fundme.sol\":177:186  msg.value */\n      callvalue\n        /* \"back/fundme.sol\":177:199  msg.value > minimumUSD */\n      gt\n        /* \"back/fundme.sol\":169:223  require(msg.value > minimumUSD, \"Didn't send enough!\") */\n      tag_37\n      jumpi\n      mload(0x40)\n      0x08c379a000000000000000000000000000000000000000000000000000000000\n      dup2\n      mstore\n      0x04\n      add\n      tag_38\n      swap1\n      tag_39\n      jump\t// in\n    tag_38:\n      mload(0x40)\n      dup1\n      swap2\n      sub\n      swap1\n      revert\n    tag_37:\n        /* \"back/fundme.sol\":124:258  function fund() public payable  {... */\n      jump\t// out\n        /* \"#utility.yul\":7:84   */\n    tag_40:\n        /* \"#utility.yul\":44:51   */\n      0x00\n        /* \"#utility.yul\":73:78   */\n      dup2\n        /* \"#utility.yul\":62:78   */\n      swap1\n      pop\n        /* \"#utility.yul\":7:84   */\n      swap2\n      swap1\n      pop\n      jump\t// out\n        /* \"#utility.yul\":90:208   */\n    tag_41:\n        /* \"#utility.yul\":177:201   */\n      tag_49\n        /* \"#utility.yul\":195:200   */\n      dup2\n        /* \"#utility.yul\":177:201   */\n      tag_40\n      jump\t// in\n    tag_49:\n        /* \"#utility.yul\":172:175   */\n      dup3\n        /* \"#utility.yul\":165:202   */\n      mstore\n        /* \"#utility.yul\":90:208   */\n      pop\n      pop\n      jump\t// out\n        /* \"#utility.yul\":214:436   */\n    tag_12:\n        /* \"#utility.yul\":307:311   */\n      0x00\n        /* \"#utility.yul\":345:347   */\n      0x20\n        /* \"#utility.yul\":334:343   */\n      dup3\n        /* \"#utility.yul\":330:348   */\n      add\n        /* \"#utility.yul\":322:348   */\n      swap1\n      pop\n        /* \"#utility.yul\":358:429   */\n      tag_51\n        /* \"#utility.yul\":426:427   */\n      0x00\n        /* \"#utility.yul\":415:424   */\n      dup4\n        /* \"#utility.yul\":411:428   */\n      add\n        /* \"#utility.yul\":402:408   */\n      dup5\n        /* \"#utility.yul\":358:429   */\n      tag_41\n      jump\t// in\n    tag_51:\n        /* \"#utility.yul\":214:436   */\n      swap3\n      swap2\n      pop\n      pop\n      jump\t// out\n        /* \"#utility.yul\":442:622   */\n    tag_42:\n        /* \"#utility.yul\":490:567   */\n      0x4e487b7100000000000000000000000000000000000000000000000000000000\n        /* \"#utility.yul\":487:488   */\n      0x00\n        /* \"#utility.yul\":480:568   */\n      mstore\n        /* \"#utility.yul\":587:591   */\n      0x11\n        /* \"#utility.yul\":584:585   */\n      0x04\n        /* \"#utility.yul\":577:592   */\n      mstore\n        /* \"#utility.yul\":611:615   */\n      0x24\n        /* \"#utility.yul\":608:609   */\n      0x00\n        /* \"#utility.yul\":601:616   */\n      revert\n        /* \"#utility.yul\":628:933   */\n    tag_31:\n        /* \"#utility.yul\":668:671   */\n      0x00\n        /* \"#utility.yul\":687:707   */\n      tag_54\n        /* \"#utility.yul\":705:706   */\n      dup3\n        /* \"#utility.yul\":687:707   */\n      tag_40\n      jump\t// in\n    tag_54:\n        /* \"#utility.yul\":682:707   */\n      swap2\n      pop\n        /* \"#utility.yul\":721:741   */\n      tag_55\n        /* \"#utility.yul\":739:740   */\n      dup4\n        /* \"#utility.yul\":721:741   */\n      tag_40\n      jump\t// in\n    tag_55:\n        /* \"#utility.yul\":716:741   */\n      swap3\n      pop\n        /* \"#utility.yul\":875:876   */\n      dup3\n        /* \"#utility.yul\":807:873   */\n      0xffffffffffffffffffffffffffffffffffffffffffffffffffffffffffffffff\n        /* \"#utility.yul\":803:877   */\n      sub\n        /* \"#utility.yul\":800:801   */\n      dup3\n        /* \"#utility.yul\":797:878   */\n      gt\n        /* \"#utility.yul\":794:901   */\n      iszero\n      tag_56\n      jumpi\n        /* \"#utility.yul\":881:899   */\n      tag_57\n      tag_42\n      jump\t// in\n    tag_57:\n        /* \"#utility.yul\":794:901   */\n    tag_56:\n        /* \"#utility.yul\":925:926   */\n      dup3\n        /* \"#utility.yul\":922:923   */\n      dup3\n        /* \"#utility.yul\":918:927   */\n      add\n        /* \"#utility.yul\":911:927   */\n      swap1\n      pop\n        /* \"#utility.yul\":628:933   */\n      swap3\n      swap2\n      pop\n      pop\n      jump\t// out\n        /* \"#utility.yul\":939:1130   */\n    tag_35:\n        /* \"#utility.yul\":979:983   */\n      0x00\n        /* \"#utility.yul\":999:1019   */\n      tag_59\n        /* \"#utility.yul\":1017:1018   */\n      dup3\n        /* \"#utility.yul\":999:1019   */\n      tag_40\n      jump\t// in\n    tag_59:\n        /* \"#utility.yul\":994:1019   */\n      swap2\n      pop\n        /* \"#utility.yul\":1033:1053   */\n      tag_60\n        /* \"#utility.yul\":1051:1052   */\n      dup4\n        /* \"#utility.yul\":1033:1053   */\n      tag_40\n      jump\t// in\n    tag_60:\n        /* \"#utility.yul\":1028:1053   */\n      swap3\n      pop\n        /* \"#utility.yul\":1072:1073   */\n      dup3\n        /* \"#utility.yul\":1069:1070   */\n      dup3\n        /* \"#utility.yul\":1066:1074   */\n      lt\n        /* \"#utility.yul\":1063:1097   */\n      iszero\n      tag_61\n      jumpi\n        /* \"#utility.yul\":1077:1095   */\n      tag_62\n      tag_42\n      jump\t// in\n    tag_62:\n        /* \"#utility.yul\":1063:1097   */\n    tag_61:\n        /* \"#utility.yul\":1122:1123   */\n      dup3\n        /* \"#utility.yul\":1119:1120   */\n      dup3\n        /* \"#utility.yul\":1115:1124   */\n      sub\n        /* \"#utility.yul\":1107:1124   */\n      swap1\n      pop\n        /* \"#utility.yul\":939:1130   */\n      swap3\n      swap2\n      pop\n      pop\n      jump\t// out\n        /* \"#utility.yul\":1136:1305   */\n    tag_43:\n        /* \"#utility.yul\":1220:1231   */\n      0x00\n        /* \"#utility.yul\":1254:1260   */\n      dup3\n        /* \"#utility.yul\":1249:1252   */\n      dup3\n        /* \"#utility.yul\":1242:1261   */\n      mstore\n        /* \"#utility.yul\":1294:1298   */\n      0x20\n        /* \"#utility.yul\":1289:1292   */\n      dup3\n        /* \"#utility.yul\":1285:1299   */\n      add\n        /* \"#utility.yul\":1270:1299   */\n      swap1\n      pop\n        /* \"#utility.yul\":1136:1305   */\n      swap3\n      swap2\n      pop\n      pop\n      jump\t// out\n        /* \"#utility.yul\":1311:1480   */\n    tag_44:\n        /* \"#utility.yul\":1451:1472   */\n      0x4469646e27742073656e6420656e6f7567682100000000000000000000000000\n        /* \"#utility.yul\":1447:1448   */\n      0x00\n        /* \"#utility.yul\":1439:1445   */\n      dup3\n        /* \"#utility.yul\":1435:1449   */\n      add\n        /* \"#utility.yul\":1428:1473   */\n      mstore\n        /* \"#utility.yul\":1311:1480   */\n      pop\n      jump\t// out\n        /* \"#utility.yul\":1486:1852   */\n    tag_45:\n        /* \"#utility.yul\":1628:1631   */\n      0x00\n        /* \"#utility.yul\":1649:1716   */\n      tag_66\n        /* \"#utility.yul\":1713:1715   */\n      0x13\n        /* \"#utility.yul\":1708:1711   */\n      dup4\n        /* \"#utility.yul\":1649:1716   */\n      tag_43\n      jump\t// in\n    tag_66:\n        /* \"#utility.yul\":1642:1716   */\n      swap2\n      pop\n        /* \"#utility.yul\":1725:1818   */\n      tag_67\n        /* \"#utility.yul\":1814:1817   */\n      dup3\n        /* \"#utility.yul\":1725:1818   */\n      tag_44\n      jump\t// in\n    tag_67:\n        /* \"#utility.yul\":1843:1845   */\n      0x20\n        /* \"#utility.yul\":1838:1841   */\n      dup3\n        /* \"#utility.yul\":1834:1846   */\n      add\n        /* \"#utility.yul\":1827:1846   */\n      swap1\n      pop\n        /* \"#utility.yul\":1486:1852   */\n      swap2\n      swap1\n      pop\n      jump\t// out\n        /* \"#utility.yul\":1858:2277   */\n    tag_39:\n        /* \"#utility.yul\":2024:2028   */\n      0x00\n        /* \"#utility.yul\":2062:2064   */\n      0x20\n        /* \"#utility.yul\":2051:2060   */\n      dup3\n        /* \"#utility.yul\":2047:2065   */\n      add\n        /* \"#utility.yul\":2039:2065   */\n      swap1\n      pop\n        /* \"#utility.yul\":2111:2120   */\n      dup2\n        /* \"#utility.yul\":2105:2109   */\n      dup2\n        /* \"#utility.yul\":2101:2121   */\n      sub\n        /* \"#utility.yul\":2097:2098   */\n      0x00\n        /* \"#utility.yul\":2086:2095   */\n      dup4\n        /* \"#utility.yul\":2082:2099   */\n      add\n        /* \"#utility.yul\":2075:2122   */\n      mstore\n        /* \"#utility.yul\":2139:2270   */\n      tag_69\n        /* \"#utility.yul\":2265:2269   */\n      dup2\n        /* \"#utility.yul\":2139:2270   */\n      tag_45\n      jump\t// in\n    tag_69:\n        /* \"#utility.yul\":2131:2270   */\n      swap1\n      pop\n        /* \"#utility.yul\":1858:2277   */\n      swap2\n      swap1\n      pop\n      jump\t// out\n\n    auxdata: 0xa26469706673582212200ed6e30e122131ced6476905616ea5d770d2a8430544fd5936875af82ea8175364736f6c63430008080033\n}\n",
				"bytecode": {
					"linkReferences": {},
					"object": "6080604052603260005534801561001557600080fd5b50610345806100256000396000f3fe6080604052600436106100555760003560e01c806306661abd1461005a5780633430a88c14610085578063371303c0146100b05780636d4ce63c146100c7578063b3bcfa82146100f2578063b60d428814610109575b600080fd5b34801561006657600080fd5b5061006f610113565b60405161007c91906101be565b60405180910390f35b34801561009157600080fd5b5061009a610119565b6040516100a791906101be565b60405180910390f35b3480156100bc57600080fd5b506100c561011f565b005b3480156100d357600080fd5b506100dc61013a565b6040516100e991906101be565b60405180910390f35b3480156100fe57600080fd5b50610107610144565b005b61011161015f565b005b60015481565b60005481565b60018060008282546101319190610208565b92505081905550565b6000600154905090565b6001806000828254610156919061025e565b92505081905550565b60005434116101a3576040517f08c379a000000000000000000000000000000000000000000000000000000000815260040161019a906102ef565b60405180910390fd5b565b6000819050919050565b6101b8816101a5565b82525050565b60006020820190506101d360008301846101af565b92915050565b7f4e487b7100000000000000000000000000000000000000000000000000000000600052601160045260246000fd5b6000610213826101a5565b915061021e836101a5565b9250827fffffffffffffffffffffffffffffffffffffffffffffffffffffffffffffffff03821115610253576102526101d9565b5b828201905092915050565b6000610269826101a5565b9150610274836101a5565b925082821015610287576102866101d9565b5b828203905092915050565b600082825260208201905092915050565b7f4469646e27742073656e6420656e6f7567682100000000000000000000000000600082015250565b60006102d9601383610292565b91506102e4826102a3565b602082019050919050565b60006020820190508181036000830152610308816102cc565b905091905056fea26469706673582212200ed6e30e122131ced6476905616ea5d770d2a8430544fd5936875af82ea8175364736f6c63430008080033",
					"opcodes": "PUSH1 0x80 PUSH1 0x40 MSTORE PUSH1 0x32 PUSH1 0x0 SSTORE CALLVALUE DUP1 ISZERO PUSH2 0x15 JUMPI PUSH1 0x0 DUP1 REVERT JUMPDEST POP PUSH2 0x345 DUP1 PUSH2 0x25 PUSH1 0x0 CODECOPY PUSH1 0x0 RETURN INVALID PUSH1 0x80 PUSH1 0x40 MSTORE PUSH1 0x4 CALLDATASIZE LT PUSH2 0x55 JUMPI PUSH1 0x0 CALLDATALOAD PUSH1 0xE0 SHR DUP1 PUSH4 0x6661ABD EQ PUSH2 0x5A JUMPI DUP1 PUSH4 0x3430A88C EQ PUSH2 0x85 JUMPI DUP1 PUSH4 0x371303C0 EQ PUSH2 0xB0 JUMPI DUP1 PUSH4 0x6D4CE63C EQ PUSH2 0xC7 JUMPI DUP1 PUSH4 0xB3BCFA82 EQ PUSH2 0xF2 JUMPI DUP1 PUSH4 0xB60D4288 EQ PUSH2 0x109 JUMPI JUMPDEST PUSH1 0x0 DUP1 REVERT JUMPDEST CALLVALUE DUP1 ISZERO PUSH2 0x66 JUMPI PUSH1 0x0 DUP1 REVERT JUMPDEST POP PUSH2 0x6F PUSH2 0x113 JUMP JUMPDEST PUSH1 0x40 MLOAD PUSH2 0x7C SWAP2 SWAP1 PUSH2 0x1BE JUMP JUMPDEST PUSH1 0x40 MLOAD DUP1 SWAP2 SUB SWAP1 RETURN JUMPDEST CALLVALUE DUP1 ISZERO PUSH2 0x91 JUMPI PUSH1 0x0 DUP1 REVERT JUMPDEST POP PUSH2 0x9A PUSH2 0x119 JUMP JUMPDEST PUSH1 0x40 MLOAD PUSH2 0xA7 SWAP2 SWAP1 PUSH2 0x1BE JUMP JUMPDEST PUSH1 0x40 MLOAD DUP1 SWAP2 SUB SWAP1 RETURN JUMPDEST CALLVALUE DUP1 ISZERO PUSH2 0xBC JUMPI PUSH1 0x0 DUP1 REVERT JUMPDEST POP PUSH2 0xC5 PUSH2 0x11F JUMP JUMPDEST STOP JUMPDEST CALLVALUE DUP1 ISZERO PUSH2 0xD3 JUMPI PUSH1 0x0 DUP1 REVERT JUMPDEST POP PUSH2 0xDC PUSH2 0x13A JUMP JUMPDEST PUSH1 0x40 MLOAD PUSH2 0xE9 SWAP2 SWAP1 PUSH2 0x1BE JUMP JUMPDEST PUSH1 0x40 MLOAD DUP1 SWAP2 SUB SWAP1 RETURN JUMPDEST CALLVALUE DUP1 ISZERO PUSH2 0xFE JUMPI PUSH1 0x0 DUP1 REVERT JUMPDEST POP PUSH2 0x107 PUSH2 0x144 JUMP JUMPDEST STOP JUMPDEST PUSH2 0x111 PUSH2 0x15F JUMP JUMPDEST STOP JUMPDEST PUSH1 0x1 SLOAD DUP2 JUMP JUMPDEST PUSH1 0x0 SLOAD DUP2 JUMP JUMPDEST PUSH1 0x1 DUP1 PUSH1 0x0 DUP3 DUP3 SLOAD PUSH2 0x131 SWAP2 SWAP1 PUSH2 0x208 JUMP JUMPDEST SWAP3 POP POP DUP2 SWAP1 SSTORE POP JUMP JUMPDEST PUSH1 0x0 PUSH1 0x1 SLOAD SWAP1 POP SWAP1 JUMP JUMPDEST PUSH1 0x1 DUP1 PUSH1 0x0 DUP3 DUP3 SLOAD PUSH2 0x156 SWAP2 SWAP1 PUSH2 0x25E JUMP JUMPDEST SWAP3 POP POP DUP2 SWAP1 SSTORE POP JUMP JUMPDEST PUSH1 0x0 SLOAD CALLVALUE GT PUSH2 0x1A3 JUMPI PUSH1 0x40 MLOAD PUSH32 0x8C379A000000000000000000000000000000000000000000000000000000000 DUP2 MSTORE PUSH1 0x4 ADD PUSH2 0x19A SWAP1 PUSH2 0x2EF JUMP JUMPDEST PUSH1 0x40 MLOAD DUP1 SWAP2 SUB SWAP1 REVERT JUMPDEST JUMP JUMPDEST PUSH1 0x0 DUP2 SWAP1 POP SWAP2 SWAP1 POP JUMP JUMPDEST PUSH2 0x1B8 DUP2 PUSH2 0x1A5 JUMP JUMPDEST DUP3 MSTORE POP POP JUMP JUMPDEST PUSH1 0x0 PUSH1 0x20 DUP3 ADD SWAP1 POP PUSH2 0x1D3 PUSH1 0x0 DUP4 ADD DUP5 PUSH2 0x1AF JUMP JUMPDEST SWAP3 SWAP2 POP POP JUMP JUMPDEST PUSH32 0x4E487B7100000000000000000000000000000000000000000000000000000000 PUSH1 0x0 MSTORE PUSH1 0x11 PUSH1 0x4 MSTORE PUSH1 0x24 PUSH1 0x0 REVERT JUMPDEST PUSH1 0x0 PUSH2 0x213 DUP3 PUSH2 0x1A5 JUMP JUMPDEST SWAP2 POP PUSH2 0x21E DUP4 PUSH2 0x1A5 JUMP JUMPDEST SWAP3 POP DUP3 PUSH32 0xFFFFFFFFFFFFFFFFFFFFFFFFFFFFFFFFFFFFFFFFFFFFFFFFFFFFFFFFFFFFFFFF SUB DUP3 GT ISZERO PUSH2 0x253 JUMPI PUSH2 0x252 PUSH2 0x1D9 JUMP JUMPDEST JUMPDEST DUP3 DUP3 ADD SWAP1 POP SWAP3 SWAP2 POP POP JUMP JUMPDEST PUSH1 0x0 PUSH2 0x269 DUP3 PUSH2 0x1A5 JUMP JUMPDEST SWAP2 POP PUSH2 0x274 DUP4 PUSH2 0x1A5 JUMP JUMPDEST SWAP3 POP DUP3 DUP3 LT ISZERO PUSH2 0x287 JUMPI PUSH2 0x286 PUSH2 0x1D9 JUMP JUMPDEST JUMPDEST DUP3 DUP3 SUB SWAP1 POP SWAP3 SWAP2 POP POP JUMP JUMPDEST PUSH1 0x0 DUP3 DUP3 MSTORE PUSH1 0x20 DUP3 ADD SWAP1 POP SWAP3 SWAP2 POP POP JUMP JUMPDEST PUSH32 0x4469646E27742073656E6420656E6F7567682100000000000000000000000000 PUSH1 0x0 DUP3 ADD MSTORE POP JUMP JUMPDEST PUSH1 0x0 PUSH2 0x2D9 PUSH1 0x13 DUP4 PUSH2 0x292 JUMP JUMPDEST SWAP2 POP PUSH2 0x2E4 DUP3 PUSH2 0x2A3 JUMP JUMPDEST PUSH1 0x20 DUP3 ADD SWAP1 POP SWAP2 SWAP1 POP JUMP JUMPDEST PUSH1 0x0 PUSH1 0x20 DUP3 ADD SWAP1 POP DUP2 DUP2 SUB PUSH1 0x0 DUP4 ADD MSTORE PUSH2 0x308 DUP2 PUSH2 0x2CC JUMP JUMPDEST SWAP1 POP SWAP2 SWAP1 POP JUMP INVALID LOG2 PUSH5 0x6970667358 0x22 SLT KECCAK256 0xE 0xD6 0xE3 0xE SLT 0x21 BALANCE 0xCE 0xD6 SELFBALANCE PUSH10 0x5616EA5D770D2A84305 DIFFICULTY REVERT MSIZE CALLDATASIZE DUP8 GAS 0xF8 0x2E 0xA8 OR MSTORE8 PUSH5 0x736F6C6343 STOP ADDMOD ADDMOD STOP CALLER "
				},
				"gasEstimates": {
					"creation": {
						"codeDepositCost": "167400",
						"executionCost": "22320",
						"totalCost": "189720"
					},
					"external": {
						"count()": "2407",
						"dec()": "infinite",
						"fund()": "2619",
						"get()": "2481",
						"inc()": "infinite",
						"minimumUSD()": "2429"
					}
				},
				"methodIdentifiers": {
					"count()": "06661abd",
					"dec()": "b3bcfa82",
					"fund()": "b60d4288",
					"get()": "6d4ce63c",
					"inc()": "371303c0",
					"minimumUSD()": "3430a88c"
				}
			},
			"storageLayout": {
				"storage": [
					{
						"astId": 4,
						"contract": "back/fundme.sol:FundMe",
						"label": "minimumUSD",
						"offset": 0,
						"slot": "0",
						"type": "t_uint256"
					},
					{
						"astId": 18,
						"contract": "back/fundme.sol:FundMe",
						"label": "count",
						"offset": 0,
						"slot": "1",
						"type": "t_uint256"
					}
				],
				"types": {
					"t_uint256": {
						"encoding": "inplace",
						"label": "uint256",
						"numberOfBytes": "32"
					}
				}
			},
			"userdoc": {
				"kind": "user",
				"methods": {},
				"version": 1
			}
		}
	}
}